:100000000C942A000C9447000C9447000C94470071
:100010000C943C030C9415030C9447000C9447007B
:100020000C9447000C9447000C9447000C94470034
:100030000C9447000C9447000C9447000C94470024
:100040000C9447000C9447000C9447000C94470014
:100050000C94470011241FBECFE5D8E0DEBFCDBF12
:1000600010E0A0E6B0E0E4ECFAE002C005900D92EA
:10007000A837B107D9F710E0A8E7B0E001C01D929A
:10008000A338B107E1F70E9490020C9460050C942C
:100090000000813031F1813038F0823009F43EC007
:1000A000833009F074C057C0413069F42AB381E04D
:1000B00090E0AC0102C0440F551F6A95E2F7BA0107
:1000C000622B6ABB08952AB381E090E0AC0102C0C4
:1000D000440F551F6A95E2F7BA01609562236ABB27
:1000E0000895413069F427B381E090E0AC0102C08B
:1000F000440F551F6A95E2F7BA01622B67BB08955A
:1001000027B381E090E0AC0102C0440F551F6A950F
:10011000E2F7BA016095622367BB0895413069F444
:1001200024B381E090E0AC0102C0440F551F6A95F2
:10013000E2F7BA01622B64BB089524B381E090E03A
:10014000AC0102C0440F551F6A95E2F7BA016095F1
:10015000622364BB0895413069F421B381E090E0EB
:10016000AC0102C0440F551F6A95E2F7BA01622B39
:1001700061BB089521B381E090E0AC0102C0440F5F
:10018000551F6A95E2F7BA016095622361BB089535
:10019000813049F0813028F0823039F0833041F4E9
:1001A00006C06ABB089567BB089564BB089561BB30
:1001B0000895813049F0813028F0823039F0833061
:1001C00041F406C06BBB089568BB089565BB0895F4
:1001D00062BB0895813031F1813038F0823009F40A
:1001E0003EC0833009F074C057C0442371F42BB370
:1001F00081E090E0AC0102C0440F551F6A95E2F720
:10020000BA01609562236BBB08952BB381E090E047
:10021000AC0102C0440F551F6A95E2F7BA01622B88
:100220006BBB0895442371F428B381E090E0AC01E6
:1002300002C0440F551F6A95E2F7BA016095622328
:1002400068BB089528B381E090E0AC0102C0440F80
:10025000551F6A95E2F7BA01622B68BB08954423E3
:1002600071F425B381E090E0AC0102C0440F551F4A
:100270006A95E2F7BA016095622365BB089525B3DC
:1002800081E090E0AC0102C0440F551F6A95E2F78F
:10029000BA01622B65BB0895442371F422B381E057
:1002A00090E0AC0102C0440F551F6A95E2F7BA0115
:1002B0006095622362BB089522B381E090E0AC01B7
:1002C00002C0440F551F6A95E2F7BA01622B62BB68
:1002D00008958130C1F0813030F0823019F18330DF
:1002E00009F03EC02EC08BB3942F909589238BBB11
:1002F00070E0CB0102C0880F991F2A95E2F79C019C
:1003000024232BBB089588B3942F9095892388BB11
:1003100070E0FB0102C0EE0FFF1F2A95E2F7E42315
:10032000E8BB089585B3942F9095892385BB70E031
:10033000CB0102C0880F991F2A95E2F7842385BB61
:10034000089582B3942F9095892382BB70E0CB01EE
:1003500002C0880F991F2A95E2F79C01242322BB33
:100360000895682370E0CB0102C0959587954A9562
:10037000E2F708958130A1F0813028F08230E9F071
:100380008330A1F527C02BB381E090E0AC0102C01F
:10039000440F551F6A95E2F7BA0162276BBB0895B7
:1003A00028B381E090E0AC0102C0440F551F6A956C
:1003B000E2F7BA01622768BB089525B381E090E0B7
:1003C000AC0102C0440F551F6A95E2F7BA016227DB
:1003D00065BB089522B381E090E0AC0102C0440FF8
:1003E000551F6A95E2F7BA01622762BB0895813012
:1003F00089F0813028F08230B9F0833049F51EC091
:1004000029B330E0C90102C0959587956A95E2F756
:100410008170089526B330E0C90102C09595879593
:100420006A95E2F78170089523B330E0C90102C0F4
:10043000959587956A95E2F78170089520B330E02D
:10044000C90102C0959587956A95E2F78170089574
:1004500080E008958130F9F0813030F0823091F100
:10046000833009F05CC045C08AB390E0062E02C01C
:10047000959587950A94E2F780FD51C02BB381E0F2
:1004800090E0AC0102C0440F551F6A95E2F7BA0133
:10049000622B6BBB089587B390E0062E02C0959542
:1004A00087950A94E2F780FD3AC028B381E090E096
:1004B000AC0102C0440F551F6A95E2F7BA01622BE6
:1004C00068BB089584B390E0062E02C09595879589
:1004D0000A94E2F780FD23C025B381E090E0AC01EF
:1004E00002C0440F551F6A95E2F7BA01622B65BB43
:1004F000089581B390E0062E02C0959587950A94E1
:10050000E2F780FD0CC022B381E090E0AC0102C0B4
:10051000440F551F6A95E2F7BA01622B62BB08953A
:10052000CF93DF93CDB7DEB768970FB6F894DEBFF1
:100530000FBECDBFDE011196E0E6F0E088E101904C
:100540000D928150E1F700E010E0F801EE0FFF1F7F
:10055000E00FF11F81E090E08C0F9D1FE80FF91F65
:100560006081718182810E9463030F5F1F4F083099
:10057000110559F710E000E0812F90E0FC01EE0F2B
:10058000FF1FE80FF91F81E090E08C0F9D1FE80F1F
:10059000F91F6081718182810E9445051F5F1830BB
:1005A00058F3102FE9CF85B58F7B85BD85B5877F43
:1005B00085BD85B58E7F85BD85B5826085BD85B5D8
:1005C0008B7F85BD85B58F7E85BD85B58F7D85BDCE
:1005D00089B78E7F89BF89B78D7F89BF88B78160D2
:1005E00088BF88B7826088BF14BC13BC089584BDDF
:1005F000089583BD089589B7806489BF089589B738
:100600008F7B89BF089589B7806889BF089589B7AE
:100610008F7789BF08959093820080938100089519
:100620009093800080937F0008951F920F920FB6E1
:100630000F9211242F933F934F935F936F937F9368
:100640008F939F93AF93BF93EF93FF93E0918100BC
:10065000F09182000995FF91EF91BF91AF919F9129
:100660008F917F916F915F914F913F912F910F905B
:100670000FBE0F901F9018951F920F920FB60F92FA
:1006800011242F933F934F935F936F937F938F9397
:100690009F93AF93BF93EF93FF93E0917F00F0910F
:1006A00080000995FF91EF91BF91AF919F918F913C
:1006B0007F916F915F914F913F912F910F900FBE5E
:1006C0000F901F9018950F931F93CF93DF9300D037
:1006D0000F92CDB7DEB7162F6983072F7A838B83EE
:1006E000ACE7B0E0FE01319683E001900D928150BD
:1006F000E1F7409178005091790060917A00709113
:100700007B008B8190E0A0E0B0E0842B952BA62BA2
:10071000B72B8093780090937900A0937A00B093E0
:100720007B00812F602F41E00E944900812F602FC4
:1007300040E00E94EA000E94D3020F900F900F90B9
:10074000DF91CF911F910F9108950F931F93CF9336
:10075000DF9300D00F92CDB7DEB7062F6983172F36
:100760007A838B83862F672F41E00E94EA008FE90E
:100770009CE80197F1F700C00000802F612F40E056
:100780000E94EA008FE496E40197F1F700C00000B0
:100790000F900F900F90DF91CF911F910F910895BF
:1007A000EF92FF920F931F93CF93DF9300D00F929E
:1007B000CDB7DEB7F62E6983E72E7A838B8300E010
:1007C00010E08F2D6E2D41E00E94EA008BEC98E046
:1007D0000197F1F700C000008091780090917900B6
:1007E000A0917A00B0917B00002E04C0B695A79529
:1007F000979587950A94D2F781709070009761F071
:100800008F2D6E2D40E00E94EA00ADE5BAE1119710
:10081000F1F700C000000EC08F2D6E2D40E00E9449
:10082000EA008FE79DE7ABE181509040A040E1F7FF
:1008300000C000000F5F1F4F0032110511F60F902E
:100840000F900F90DF91CF911F910F91FF90EF903C
:100850000895CF93DF9300D00F92CDB7DEB7962FD8
:100860006983672F7A838B83892F41E00E94EA0096
:100870008BEC98E00197F1F700C000000F900F900B
:100880000F90DF91CF910895CF93DF9300D00F9217
:10089000CDB7DEB769837A838B830E94A503698114
:1008A0007A818B810E94D00369817A818B810E9439
:1008B00029040F900F900F90DF91CF9108950F931F
:1008C0001F93CF93DF9300D00F92CDB7DEB7062FE3
:1008D0006983172F7A838B83862F672F41E00E94CD
:1008E000EA008AE38A95F1F700C0802F612F40E08B
:1008F0000E94EA0086E38A95F1F70F900F900F901F
:10090000DF91CF911F910F9108950F931F93CF9374
:10091000DF9300D00F92CDB7DEB7062F6983172F74
:100920007A838B8314BC862F672F41E00E94EA00F4
:1009300084B58931E8F3802F612F40E00E94EA00FE
:1009400084B58133E8F30F900F900F90DF91CF9132
:100950001F910F9108950F931F93CF93DF9300D0B2
:100960000F92CDB7DEB7062F6983172F7A838B835B
:10097000862F672F41E00E94EA008FE99CE80197EB
:10098000F1F700C00000802F612F40E00E94EA00D4
:100990008FE496E40197F1F700C000000F900F90EC
:1009A0000F90DF91CF911F910F9108950F931F9397
:1009B000CF93DF9300D00F92CDB7DEB769837A83F0
:1009C0008B8305E110E069817A818B810E94850427
:1009D00001501040C1F70F900F900F90DF91CF9111
:1009E0001F910F910895CF92DF92EF92FF920F9394
:1009F0001F93CF93DF9300D00F92CDB7DEB76983FB
:100A00007A838B83EE24FF240F2EF4E1CF2EDD2496
:100A1000F02D89816A8141E00E94EA008BEC98E028
:100A20000197F1F700C000008B8190E00E2C02C00E
:100A3000959587950A94E2F780FD0AC08601698141
:100A40007A818B810E94850401501040C1F70AC051
:100A500001E410E069817A818B810E948504015054
:100A60001040C1F70894E11CF11C98E0E916F1046C
:100A700081F60F900F900F90DF91CF911F910F9102
:100A8000FF90EF90DF90CF900895CF93DF9300D049
:100A90000F92CDB7DEB769837A838B830E94AB0454
:100AA00069817A818B810E94F30469817A818B81CB
:100AB0000E94D6040F900F900F90DF91CF91089570
:040AC000F894FFCFD8
:100AC4000200F00201F10202F20203F30204F40252
:080AD40005F50206F60207F722
:00000001FF
