S01800005350495F4E6578745F56657273696F6E2E73726563DD
S11300000C942A000C9447000C9447000C9447006D
S11300100C9447000C9447000C9447000C94470040
S11300200C9447000C9447000C9447000C94470030
S11300300C9456020C9447000C9447000C9447000F
S11300400C9447000C9447000C9447000C94470010
S11300500C94470011241FBECFE5D8E0DEBFCDBF0E
S113006010E0A0E6B0E0E8E3F6E002C005900D92EF
S1130070A036B107D9F710E0A0E6B0E001C01D92A8
S1130080A236B107E1F70E9455020C941A030C94AE
S1130090000080E065E041E00E94640081E0089592
S11300A080E065E041E00E94F80081E0089580E08E
S11300B065E040E00E94F80081E0089580E065E09A
S11300C00E948C0181E00895442321F0413009F01D
S11300D089C046C08130B9F0813030F0823011F1EE
S11300E0833009F081C02DC02AB381E090E0AC01D7
S11300F002C0440F551F6A95E2F7BA016095622366
S11301006ABB81E0089527B381E090E0AC0102C0AE
S1130110440F551F6A95E2F7BA016095622367BBE5
S113012081E0089524B381E090E0AC0102C0440F63
S1130130551F6A95E2F7BA016095622364BB81E0BA
S1130140089521B381E090E0AC0102C0440F551F33
S11301506A95E2F7BA016095622361BB81E0089574
S11301608130B1F0813030F0823001F1833009F018
S11301703DC02AC02AB381E090E0AC0102C0440F24
S1130180551F6A95E2F7BA01622B6ABB81E00895B4
S113019027B381E090E0AC0102C0440F551F6A957B
S11301A0E2F7BA01622B67BB81E0089524B381E0D2
S11301B090E0AC0102C0440F551F6A95E2F7BA0102
S11301C0622B64BB81E0089521B381E090E0AC012F
S11301D002C0440F551F6A95E2F7BA01622B61BB56
S11301E081E0089581E0089580E0089580E0089515
S11301F0442321F0413009F089C046C08130B9F070
S1130200813030F0823011F1833009F081C02DC08B
S11302102BB381E090E0AC0102C0440F551F6A95F6
S1130220E2F7BA01609562236BBB81E0089528B3BD
S113023081E090E0AC0102C0440F551F6A95E2F7DB
S1130240BA016095622368BB81E0089525B381E01B
S113025090E0AC0102C0440F551F6A95E2F7BA0161
S11302606095622365BB81E0089522B381E090E04C
S1130270AC0102C0440F551F6A95E2F7BA016095BC
S1130280622362BB81E008958130B1F0813030F0A7
S1130290823001F1833009F03DC02AC02BB381E0E4
S11302A090E0AC0102C0440F551F6A95E2F7BA0111
S11302B0622B6BBB81E0089528B381E090E0AC0130
S11302C002C0440F551F6A95E2F7BA01622B68BB5E
S11302D081E0089525B381E090E0AC0102C0440FB1
S11302E0551F6A95E2F7BA01622B65BB81E0089558
S11302F022B381E090E0AC0102C0440F551F6A951F
S1130300E2F7BA01622B62BB81E0089581E00895AF
S113031080E0089580E008958130A9F0813028F0CC
S11303208230F9F08330C9F52AC02BB381E090E024
S1130330AC0102C0440F551F6A95E2F7BA01622767
S11303406BBB81E0089528B381E090E0AC0102C06A
S1130350440F551F6A95E2F7BA01622768BB81E032
S1130360089525B381E090E0AC0102C0440F551F0D
S11303706A95E2F7BA01622765BB81E0089522B36A
S113038081E090E0AC0102C0440F551F6A95E2F78A
S1130390BA01622762BB81E0089580E0089581304C
S11303A0A9F0813028F08230F9F08330C9F52AC0F1
S11303B089B390E09C0102C0359527956A95E2F7D0
S11303C0B9016170FA01608381E0089586B390E019
S11303D09C0102C0359527956A95E2F7B9016170D1
S11303E0FA01608381E0089583B390E09C0102C028
S11303F0359527956A95E2F7B9016170FA01608332
S113040081E0089580B390E09C0102C03595279562
S11304106A95E2F7B9016170FA01608381E0089599
S113042080E008958130A9F0813028F08230F9F01D
S11304308330C9F52AC02BB381E090E0AC0102C03F
S1130440440F551F6A95E2F7BA01622B6BBB81E03A
S1130450089528B381E090E0AC0102C0440F551F19
S11304606A95E2F7BA01622B68BB81E0089525B36F
S113047081E090E0AC0102C0440F551F6A95E2F799
S1130480BA01622B65BB81E0089522B381E090E05C
S1130490AC0102C0440F551F6A95E2F7BA01622B02
S11304A062BB81E0089580E00895FFCF1F920F9210
S11304B00FB60F9211242F933F934F935F936F9333
S11304C07F938F939F93AF93BF93EF93FF93E091A9
S11304D06000F09161000995FF91EF91BF91AF9198
S11304E09F918F917F916F915F914F913F912F9148
S11304F00F900FBE0F901F901895CF93DF93EC01D0
S113050081E066E040E00E94640081E065E041E053
S11305100E94640081E067E041E00E94640081E0A1
S113052064E041E00E9464004DB140658C818370B9
S1130530482B3881379533273795342B29812295D9
S1130540220F207E232B9A81990F990F990F922BBA
S11305508B81880F880F892B8DB99EB18C818695EC
S11305608695892B8EB981E0DF91CF910895CF9341
S1130570DF93EC0181E066E041E00E94640081E0E9
S113058065E040E00E94640081E067E040E00E9492
S1130590640081E064E040E00E9464001DB84DB155
S11305A040643881379533273795342B2981229538
S11305B0220F207E232B9A81990F990F990F922B4A
S11305C08B81880F880F892B8DB981E0DF91CF91C2
S11305D008958FB9779BFECF8FB1FB01808381E0B3
S11305E008958FB9779BFECF81E008952FB1FC0168
S11305F0208381E00895909361008093600081E0FE
S113060008958FB780688FBF81E008950E94F1023A
S11306100895CF93DF930F92CDB7DEB719828EEF93
S1130620BE016F5F7F4F0E94E90289810F90DF91C5
S10B0630CF910895F894FFCF67
S9030000FC
