:1000000012C02CC02BC02AC029C028C027C026C0BF
:1000100025C024C023C022C04DC320C01FC01EC0A5
:100020001DC01CC01BC011241FBECFE5D4E0DEBF25
:10003000CDBF10E0A0E6B0E0EAEDF6E002C005902A
:100040000D92A036B107D9F710E0A0E6B0E001C0EC
:100050001D92A236B107E1F751D23DC3D1CF813015
:1000600031F1813038F0823009F43EC0833009F03C
:1000700074C057C0413069F42AB381E090E0AC010C
:1000800002C0440F551F6A95E2F7BA01622B6ABBA2
:1000900008952AB381E090E0AC0102C0440F551FDF
:1000A0006A95E2F7BA01609562236ABB0895413010
:1000B00069F427B381E090E0AC0102C0440F551F02
:1000C0006A95E2F7BA01622B67BB089527B381E016
:1000D00090E0AC0102C0440F551F6A95E2F7BA01E7
:1000E0006095622367BB0895413069F424B381E0D1
:1000F00090E0AC0102C0440F551F6A95E2F7BA01C7
:10010000622B64BB089524B381E090E0AC0102C08F
:10011000440F551F6A95E2F7BA016095622364BBEC
:100120000895413069F421B381E090E0AC0102C050
:10013000440F551F6A95E2F7BA01622B61BB08951F
:1001400021B381E090E0AC0102C0440F551F6A95D5
:10015000E2F7BA016095622361BB0895813049F0EE
:10016000813028F0823039F0833041F406C06ABB18
:10017000089567BB089564BB089561BB08958130FD
:1001800049F0813028F0823039F0833041F406C0E4
:100190006BBB089568BB089565BB089562BB089565
:1001A000813031F1813038F0823009F43EC0833043
:1001B00009F074C057C0442371F42BB381E090E080
:1001C000AC0102C0440F551F6A95E2F7BA01609571
:1001D00062236BBB08952BB381E090E0AC0102C0B9
:1001E000440F551F6A95E2F7BA01622B6BBB089565
:1001F000442371F428B381E090E0AC0102C0440FC5
:10020000551F6A95E2F7BA016095622368BB0895AD
:1002100028B381E090E0AC0102C0440F551F6A95FD
:10022000E2F7BA01622B68BB0895442371F425B349
:1002300081E090E0AC0102C0440F551F6A95E2F7DF
:10024000BA016095622365BB089525B381E090E013
:10025000AC0102C0440F551F6A95E2F7BA01622B48
:1002600065BB0895442371F422B381E090E0AC01B2
:1002700002C0440F551F6A95E2F7BA0160956223E8
:1002800062BB089522B381E090E0AC0102C0440F4C
:10029000551F6A95E2F7BA01622B62BB089581305F
:1002A000C1F0813030F0823019F1833009F03EC066
:1002B0002EC08BB3942F909589238BBB70E0CB011C
:1002C00002C0880F991F2A95E2F79C0124232BBBBB
:1002D000089588B3942F9095892388BB70E0FB0123
:1002E00002C0EE0FFF1F2A95E2F7E423E8BB089552
:1002F00085B3942F9095892385BB70E0CB0102C014
:10030000880F991F2A95E2F7842385BB089582B34D
:10031000942F9095892382BB70E0CB0102C0880F97
:10032000991F2A95E2F79C01242322BB0895682394
:1003300070E0CB0102C0959587954A95E2F7089544
:100340008130A1F0813028F08230E9F08330A1F5CE
:1003500027C02BB381E090E0AC0102C0440F551FD1
:100360006A95E2F7BA0162276BBB089528B381E072
:1003700090E0AC0102C0440F551F6A95E2F7BA0144
:10038000622768BB089525B381E090E0AC0102C00C
:10039000440F551F6A95E2F7BA01622765BB0895BD
:1003A00022B381E090E0AC0102C0440F551F6A9572
:1003B000E2F7BA01622762BB0895813089F081308B
:1003C00028F08230B9F0833049F51EC029B330E0FF
:1003D000C90102C0959587956A95E2F781700895E5
:1003E00026B330E0C90102C0959587956A95E2F77A
:1003F0008170089523B330E0C90102C095958795B7
:100400006A95E2F78170089520B330E0C90102C017
:10041000959587956A95E2F78170089580E0089533
:100420008130F9F0813030F0823091F1833009F081
:100430005CC045C08AB390E0062E02C095958795B2
:100440000A94E2F780FD51C02BB381E090E0AC014B
:1004500002C0440F551F6A95E2F7BA01622B6BBBCD
:10046000089587B390E0062E02C0959587950A946B
:10047000E2F780FD3AC028B381E090E0AC0102C011
:10048000440F551F6A95E2F7BA01622B68BB0895C5
:1004900084B390E0062E02C0959587950A94E2F702
:1004A00080FD23C025B381E090E0AC0102C0440F81
:1004B000551F6A95E2F7BA01622B65BB089581B3B7
:1004C00090E0062E02C0959587950A94E2F780FD8C
:1004D0000CC022B381E090E0AC0102C0440F551F74
:1004E0006A95E2F7BA01622B62BB08958FB7806804
:1004F0008FBF08958FB78F778FBF0895CF93DF9306
:1005000000D000D0CDB7DEB719821A8283E08B838A
:1005100081E08C83CE0101965BD082E060E041E017
:100520009EDD8AEFA8D02FEF31EE44E0215030401D
:100530004040E1F700C000008F3D99F782E060E0A5
:10054000FFDE8FEF99E6A8E181509040A040E1F7EF
:1005500000C00000E6CF6E9A80E008956E9880E0BB
:100560000895813011F46C9A03C0882309F46C98C3
:1005700080E00895813051F0813028F0823049F0D8
:10058000833061F409C06B986A9808C06B986A9AC6
:1005900005C06B9A6A9802C06B9A6A9A80E00895C7
:1005A0009DB19C7F9DB99DB1982B9DB986958695EF
:1005B00080FD02C0709801C0709A80E0089581307B
:1005C00011F46D9A03C0882309F46D9880E00895B2
:1005D000CF93DF93EC018881C4DF88818130A9F457
:1005E00065E041E03CDD81E066E040E038DD81E04F
:1005F00067E041E034DD81E064E040E030DD81E04F
:1006000064E00EDF8A81CCDF12C0882381F481E0B0
:1006100065E040E024DD81E066E041E020DD81E04E
:1006200067E040E01CDD81E064E040E018DD8981A6
:10063000A1DF8B81C4DF8FDFDF91CF910895CF934E
:10064000DF93D82FC62F41E00ADD8D2F6C2F40E0BD
:10065000A7DD80E0DF91CF910895CF93DF93D82F6E
:10066000C62F41E0FCDC8D2F6C2F41E099DD80E04E
:10067000DF91CF9108959FB18FB9779BFECF8EB157
:10068000829586958695837080FD8EB18FB1089591
:10069000779BFECF8EB186FDFBCF8FB108956F9A09
:1006A000089590916000992321F48FB981E080939F
:1006B000600008951F920F920FB60F9211248F932E
:1006C0008FB180936100109260008F910F900FBEE8
:0A06D0000F901F901895F894FFCFCB
:00000001FF
