S01A000049525F5472616E736D69747465725F4D43552E737265632F
S113000012C02CC02BC02AC0E7C4BFC427C026C05E
S113001025C024C023C022C021C020C01FC01EC0D0
S11300201DC01CC01BC011241FBECFE5D4E0DEBF21
S1130030CDBF10E0A0E6B0E0EAE2FAE002C005902D
S11300400D92A436B107D9F710E0A4E6B0E001C0E0
S11300501D92A037B107E1F7A0D2E5C4D1CF81E06A
S113006060E041E09DD2089560916000709161006C
S113007080916200909163007ED20895CF92DF92C6
S1130080EF92FF926B017C016093680070936900AA
S113009080936A0090936B00809164009091650056
S11300A0A0916600B09167004E2D50E060E070E0D2
S11300B0842B952BA62BB72B80936400909365001B
S11300C0A0936600B09367008C2D6D2D41E068D23B
S11300D08C2D6D2D40E0DBD216D4FF90EF90DF9095
S11300E0CF900895CF93DF93D62FC72F862F672FF6
S11300F041E0CDD28FE99CE80197F1F700C0000000
S11301008D2F6C2F40E0C3D28FE496E40197F1F772
S113011000C00000DF91CF9108950F931F93CF93F8
S1130120DF93162F072FC0E0D0E0812F602F41E02E
S1130130AED28BEC98E00197F1F700C000008091FB
S1130140640090916500A0916600B09167000C2E48
S113015004C0B695A795979587950A94D2F78170B0
S11301609070009759F0812F602F40E090D28DE578
S11301709AE10197F1F700C000000DC0812F602FB4
S113018040E085D28FE79DE7ABE181509040A040ED
S1130190E1F700C000002196C032D10531F6DF91AD
S11301A0CF911F910F910895862F672F41E06FD251
S11301B08BEC98E00197F1F700C000000895CF920E
S11301C0DF92EF92FF926B017C018CDFC701B601D5
S11301D0A4DFC701B601E8DFFF90EF90DF90CF9076
S11301E00895CF93DF93D62FC72F862F672F41E033
S11301F04ED28FE19BEC0197F1F700C000008D2FE8
S11302006C2F40E044D28FE19BEC0197F1F700C0E2
S11302100000DF91CF910895CF93DF93D62FC72F9E
S113022014BC862F672F41E032D284B58931E8F3BC
S11302308D2F6C2F40E02BD284B58133E8F3DF910E
S1130240CF910895EF92FF920F931F93CF93DF9373
S1130250062F172FF82EE92E862F672F41E017D28D
S11302608FE99CE80197F1F700C00000CDEAD0E0E7
S1130270602F712F8F2D9E2DCFDF2197C9F7DF912E
S1130280CF911F910F91FF90EF9008952F923F927D
S11302904F925F926F927F928F929F92AF92BF9292
S11302A0CF92DF92EF92FF920F931F93CF93DF933E
S11302B000D000D0CDB7DEB76A837983382E292EDB
S11302C0CC24DD24962E872EA92EBB24162F072F8F
S11302D0F82EE92E0F2EF5E14F2E5524F02D892D01
S11302E0682D41E0D4D18BEC98E00197F1F700C080
S11302F000003501C5010C2C02C0959587950A9420
S1130300E2F780FD0FC05C824B82612F702F8F2D2E
S11303109E2D82DFEB81FC813197FC83EB83309748
S1130320A1F710C081E490E09C838B83612F702F30
S11303308F2D9E2D71DFEB81FC813197FC83EB8344
S11303403097A1F70894C11CD11CF8E0CF16D10452
S113035031F6CC24DD249A8089805301A094B09492
S1130360192D082DF32CE22C0F2EF5E16F2E772496
S1130370F02D892D682D41E08AD18BEC98E001970E
S1130380F1F700C00000C5010C2C02C095958795BB
S11303900A94E2F780FD0DC02301612F702F8F2D89
S11303A09E2D3ADF08944108510841145104A9F7DD
S11303B010C00F2EF1E44F2E5524F02D612F702F15
S11303C08F2D9E2D29DF08944108510841145104B2
S11303D0A9F70894C11CD11C98E0C916D10449F6A8
S11303E0CC24DD249A808980A32CBB24192D082DCC
S11303F0F32CE22C0F2EF5E14F2E5524F02D892DF0
S1130400682D41E044D1EBECF8E03197F1F700C0FE
S113041000003501C5010C2C02C0959587950A94FE
S1130420E2F780FD0FC05C824B82612F702F8F2D0D
S11304309E2DF2DE8B819C8101979C838B83009798
S1130440A1F710C0E1E4F0E0FC83EB83612F702F8F
S11304508F2D9E2DE1DE8B819C8101979C838B8364
S11304600097A1F70894C11CD11C98E0C916D104C7
S113047031F6CC24DD249A8089805301A094B09471
S1130480192D082DF32CE22C0F2EF5E16F2E772475
S1130490F02D892D682D41E0FAD0EBECF8E031978E
S11304A0F1F700C00000C5010C2C02C0959587959A
S11304B00A94E2F780FD0DC02301612F702F8F2D68
S11304C09E2DAADE08944108510841145104A9F74D
S11304D010C00F2EF1E44F2E5524F02D612F702FF4
S11304E08F2D9E2D99DE0894410851084114510422
S11304F0A9F70894C11CD11CF8E0CF16D10449F621
S11305000F900F900F900F90DF91CF911F910F914B
S1130510FF90EF90DF90CF90BF90AF909F908F901F
S11305207F906F905F904F903F902F900895EF923F
S1130530FF920F931F93CF93DF93062F172FF82E5D
S1130540E92E862F672F41E0A2D08BEC98E001972B
S1130550F1F700C00000C5E1D0E0602F712F8F2DAE
S11305609E2D5ADE2197C9F7DF91CF911F910F91EC
S1130570FF90EF900895CF92DF92EF92FF926B017C
S11305807C0160DEC701B60181DEC701B601CFDFA1
S1130590FF90EF90DF90CF90089561DD65DDFECF91
S11305A0823019F1833009F43DC0813009F056C01E
S11305B0413069F427B381E090E0AC0102C0440FFC
S11305C0551F6A95E2F7BA01622B67BB089527B3FA
S11305D081E090E0AC0102C0440F551F6A95E2F738
S11305E0BA016095622367BB0895413069F424B36E
S11305F081E090E0AC0102C0440F551F6A95E2F718
S1130600BA01622B64BB089524B381E090E0AC018D
S113061002C0440F551F6A95E2F7BA016095622340
S113062064BB0895413069F421B381E090E0AC01EA
S113063002C0440F551F6A95E2F7BA01622B61BBF1
S1130640089521B381E090E0AC0102C0440F551F2E
S11306506A95E2F7BA016095622361BB089582301E
S113066031F0833031F0813029F467BB089564BBE5
S1130670089561BB0895823031F0833031F08130C8
S113068029F468BB089565BB089562BB0895823060
S113069019F1833009F43DC0813009F056C0442378
S11306A071F428B381E090E0AC0102C0440F551FFF
S11306B06A95E2F7BA016095622368BB089528B38E
S11306C081E090E0AC0102C0440F551F6A95E2F747
S11306D0BA01622B68BB0895442371F425B381E009
S11306E090E0AC0102C0440F551F6A95E2F7BA01CD
S11306F06095622365BB089525B381E090E0AC0169
S113070002C0440F551F6A95E2F7BA01622B65BB1C
S11307100895442371F422B381E090E0AC0102C057
S1130720440F551F6A95E2F7BA016095622362BBD4
S1130730089522B381E090E0AC0102C0440F551F3C
S11307406A95E2F7BA01622B62BB08958230A1F088
S1130750833009F1813071F588B3942F9095892302
S113076088BBE62FF0E0BF0102C0660F771F2A9511
S1130770E2F7642368BB089585B3942F9095892389
S113078085BB70E0CB0102C0880F991F2A95E2F760
S1130790842385BB089582B3942F9095892382BBCB
S11307A070E0CB0102C0880F991F2A95E2F79C01E3
S11307B0242322BB0895682370E0CB0102C09595E1
S11307C087954A95E2F70895823089F08330E1F005
S11307D0813031F528B381E090E0AC0102C0440FD0
S11307E0551F6A95E2F7BA01622768BB089525B3DD
S11307F081E090E0AC0102C0440F551F6A95E2F716
S1130800BA01622765BB089522B381E090E0AC0190
S113081002C0440F551F6A95E2F7BA01622762BB12
S11308200895823071F08330B1F08130F1F426B351
S113083030E0C90102C0959587956A95E2F7817009
S1130840089523B330E0C90102C0959587956A9550
S1130850E2F78170089520B330E0C90102C0959594
S113086087956A95E2F78170089580E00895823053
S1130870E1F0833089F1813009F044C087B390E01E
S1130880062E02C0959587950A94E2F780FD3AC03A
S113089028B381E090E0AC0102C0440F551F6A9573
S11308A0E2F7BA01622B68BB089584B390E0062E88
S11308B002C0959587950A94E2F780FD23C025B37D
S11308C081E090E0AC0102C0440F551F6A95E2F745
S11308D0BA01622B65BB089581B390E0062E02C075
S11308E0959587950A94E2F780FD0CC022B381E0C8
S11308F090E0AC0102C0440F551F6A95E2F7BA01BB
S1130900622B62BB089585B58F7B85BD85B5877FD6
S113091085BD85B5816085BD85B58D7F85BD85B572
S11309208B7F85BD85B58F7E85BD85B58F7D85BD66
S113093089B78E7F89BF89B78D7F89BF88B781606A
S113094088BF88B7826088BF14BC13BC089584BD77
S1130950089583BD089589B7806489BF089589B7D0
S11309608F7B89BF089589B7806889BF089589B747
S11309708F7789BF089590936F0080936E000895D8
S113098090936D0080936C0008951F920F920FB6A0
S11309900F9211242F933F934F935F936F937F9301
S11309A08F939F93AF93BF93EF93FF93E0916E0068
S11309B0F0916F000995FF91EF91BF91AF919F91D5
S11309C08F917F916F915F914F913F912F910F90F4
S11309D00FBE0F901F9018951F920F920FB60F9293
S11309E011242F933F934F935F936F937F938F9330
S11309F09F93AF93BF93EF93FF93E0916C00F091BB
S1130A006D000995FF91EF91BF91AF919F918F91E7
S1130A107F916F915F914F913F912F910F900FBEF6
S10D0A200F901F901895F894FFCF73
S1070A2A0100F0FFD4
S9030000FC
