:1000000019C033C032C031C030C02FC02EC02DC087
:100010002CC02BC02AC029C0DCC127C026C025C0E7
:1000200024C023C022C021C020C01FC01EC01DC0CC
:100030001CC01BC011241FBECFEFD4E0DEBFCDBF5C
:1000400011E0A0E0B1E0EEE5F5E002C005900D9210
:10005000A030B107D9F711E0A0E0B1E001C01D92D6
:10006000A230B107E1F768D278C2CACF823019F165
:10007000833009F43DC0813009F056C0413069F445
:1000800027B381E090E0AC0102C0440F551F6A9590
:10009000E2F7BA01622B67BB089527B381E090E0D5
:1000A000AC0102C0440F551F6A95E2F7BA01609592
:1000B000622367BB0895413069F424B381E090E086
:1000C000AC0102C0440F551F6A95E2F7BA01622BDA
:1000D00064BB089524B381E090E0AC0102C0440FFA
:1000E000551F6A95E2F7BA016095622364BB0895D3
:1000F000413069F421B381E090E0AC0102C0440FCB
:10010000551F6A95E2F7BA01622B61BB089521B3CE
:1001100081E090E0AC0102C0440F551F6A95E2F700
:10012000BA016095622361BB0895823031F083305B
:1001300031F0813029F467BB089564BB089561BB39
:100140000895823031F0833031F0813029F468BB7A
:10015000089565BB089562BB0895823019F183301C
:1001600009F43DC0813009F056C0442371F428B32E
:1001700081E090E0AC0102C0440F551F6A95E2F7A0
:10018000BA016095622368BB089528B381E090E0CE
:10019000AC0102C0440F551F6A95E2F7BA01622B09
:1001A00068BB0895442371F425B381E090E0AC016D
:1001B00002C0440F551F6A95E2F7BA0160956223A9
:1001C00065BB089525B381E090E0AC0102C0440F07
:1001D000551F6A95E2F7BA01622B65BB0895442367
:1001E00071F422B381E090E0AC0102C0440F551FCE
:1001F0006A95E2F7BA016095622362BB089522B363
:1002000081E090E0AC0102C0440F551F6A95E2F70F
:10021000BA01622B62BB08958230A1F0833009F1EC
:10022000813071F588B3942F9095892388BBE62F90
:10023000F0E0BF0102C0660F771F2A95E2F7642342
:1002400068BB089585B3942F9095892385BB70E092
:10025000CB0102C0880F991F2A95E2F7842385BB42
:10026000089582B3942F9095892382BB70E0CB01CF
:1002700002C0880F991F2A95E2F79C01242322BB14
:100280000895682370E0CB0102C0959587954A9543
:10029000E2F70895823089F08330E1F0813031F562
:1002A00028B381E090E0AC0102C0440F551F6A956D
:1002B000E2F7BA01622768BB089525B381E090E0B8
:1002C000AC0102C0440F551F6A95E2F7BA016227DC
:1002D00065BB089522B381E090E0AC0102C0440FF9
:1002E000551F6A95E2F7BA01622762BB0895823012
:1002F00071F08330B1F08130F1F426B330E0C90100
:1003000002C0959587956A95E2F78170089523B3A9
:1003100030E0C90102C0959587956A95E2F7817032
:10032000089520B330E0C90102C0959587956A957C
:10033000E2F78170089580E008958230E1F0833023
:1003400089F1813009F044C087B390E0062E02C0E5
:10035000959587950A94E2F780FD3AC028B381E02D
:1003600090E0AC0102C0440F551F6A95E2F7BA0154
:10037000622B68BB089584B390E0062E02C0959569
:1003800087950A94E2F780FD23C025B381E090E0D1
:10039000AC0102C0440F551F6A95E2F7BA01622B07
:1003A00065BB089581B390E0062E02C095958795B0
:1003B0000A94E2F780FD0CC022B381E090E0AC012A
:1003C00002C0440F551F6A95E2F7BA01622B62BB67
:1003D00008951F920F920FB60F9211242F933F93FF
:1003E0004F935F936F937F938F939F93AF93BF933D
:1003F000EF93FF93E0910001F09101010995FF91C6
:10040000EF91BF91AF919F918F917F916F915F918C
:100410004F913F912F910F900FBE0F901F90189505
:10042000CF93DF93EC0181E066E040E01FDE81E0E6
:1004300065E041E01BDE81E067E041E017DE81E03E
:1004400064E041E013DE4DB140658C818370482B40
:100450003881379533273795342B29812295220F00
:10046000207E232B9A81990F990F990F922B8B81C4
:10047000880F880F892B8DB99EB18C8186958695C2
:10048000892B8EB9DF91CF910895CF93DF93EC0143
:1004900081E066E041E0EADD81E065E040E0E6DD44
:1004A00081E067E040E0E2DD81E064E040E0DEDD45
:1004B0001DB84DB140643881379533273795342BBB
:1004C00029812295220F207E232B9A81990F990F43
:1004D000990F922B8B81880F880F892B8DB9DF9113
:1004E000CF9108958FB9779BFECF8FB1FB018083A9
:1004F00008958FB9779BFECF08952FB1FC0120831B
:100500000895909301018093000108958FB780684A
:100510008FBF0895EEDF0895CF93DF930F92CDB78D
:10052000DEB719828EEFBE016F5F7F4FDBDF8981FF
:100530000F90DF91CF91089582E060E041E096DD79
:1005400082E060E0A7DE8FE996E8A1E0815090406C
:0E055000A040E1F700C00000F3CFF894FFCF09
:00000001FF
