S01800005350495F544553545F41546D656761382E73726563BB
S113000012C02CC02BC02AC029C028C027C026C0BB
S113001025C024C023C022C0CBC220C01FC01EC024
S11300201DC01CC01BC011241FBECFE5D4E0DEBF21
S1130030CDBF10E0A0E6B0E0EAE4F6E002C005902F
S11300400D92A036B107D9F710E0A0E6B0E001C0E8
S11300501D92A236B107E1F7D5D2F5C2D1CF8230D5
S113006019F1833009F43DC0813009F056C04130A4
S113007069F427B381E090E0AC0102C0440F551F3E
S11300806A95E2F7BA01622B67BB089527B381E052
S113009090E0AC0102C0440F551F6A95E2F7BA0123
S11300A06095622367BB0895413069F424B381E00D
S11300B090E0AC0102C0440F551F6A95E2F7BA0103
S11300C0622B64BB089524B381E090E0AC0102C0CC
S11300D0440F551F6A95E2F7BA016095622364BB29
S11300E00895413069F421B381E090E0AC0102C08D
S11300F0440F551F6A95E2F7BA01622B61BB08955C
S113010021B381E090E0AC0102C0440F551F6A9511
S1130110E2F7BA016095622361BB0895823031F041
S1130120833031F0813029F467BB089564BB0895AE
S113013061BB0895823031F0833031F0813029F48D
S113014068BB089565BB089562BB0895823019F1B8
S1130150833009F43DC0813009F056C0442371F462
S113016028B381E090E0AC0102C0440F551F6A95AA
S1130170E2F7BA016095622368BB089528B381E071
S113018090E0AC0102C0440F551F6A95E2F7BA0132
S1130190622B68BB0895442371F425B381E090E099
S11301A0AC0102C0440F551F6A95E2F7BA0160958D
S11301B0622365BB089525B381E090E0AC0102C0E1
S11301C0440F551F6A95E2F7BA01622B65BB089587
S11301D0442371F422B381E090E0AC0102C0440FE7
S11301E0551F6A95E2F7BA016095622362BB0895D0
S11301F022B381E090E0AC0102C0440F551F6A9520
S1130200E2F7BA01622B62BB08958230A1F0833019
S113021009F1813071F588B3942F9095892388BBB7
S1130220E62FF0E0BF0102C0660F771F2A95E2F7C0
S1130230642368BB089585B3942F9095892385BB67
S113024070E0CB0102C0880F991F2A95E2F784233E
S113025085BB089582B3942F9095892382BB70E067
S1130260CB0102C0880F991F2A95E2F79C01242331
S113027022BB0895682370E0CB0102C09595879551
S11302804A95E2F70895823089F08330E1F08130B5
S113029031F528B381E090E0AC0102C0440F551F52
S11302A06A95E2F7BA01622768BB089525B381E035
S11302B090E0AC0102C0440F551F6A95E2F7BA0101
S11302C0622765BB089522B381E090E0AC0102C0CF
S11302D0440F551F6A95E2F7BA01622762BB08957D
S11302E0823071F08330B1F08130F1F426B330E024
S11302F0C90102C0959587956A95E2F781700895C2
S113030023B330E0C90102C0959587956A95E2F759
S11303108170089520B330E0C90102C09595879596
S11303206A95E2F78170089580E008958230E1F0E3
S1130330833089F1813009F044C087B390E0062E00
S113034002C0959587950A94E2F780FD3AC028B3D8
S113035081E090E0AC0102C0440F551F6A95E2F7BA
S1130360BA01622B68BB089584B390E0062E02C0E4
S1130370959587950A94E2F780FD23C025B381E023
S113038090E0AC0102C0440F551F6A95E2F7BA0130
S1130390622B65BB089581B390E0062E02C095954B
S11303A087950A94E2F780FD0CC022B381E090E0C7
S11303B0AC0102C0440F551F6A95E2F7BA01622BE3
S11303C062BB08958FB780688FBF08958FB78F770A
S11303D08FBF089582E062E041E041DE82E060E0A8
S11303E041E03DDE81E060E041E039DE08958230A5
S11303F029F481E060E041E0A9DE0895833029F426
S113040082E060E041E0A2DE0895813021F482E0E0
S113041062E041E09BDE0895823029F481E060E0EF
S113042040E094DE0895833029F482E060E040E007
S11304308DDE0895813021F482E062E040E086DEC2
S11304400895823021F481E060E01DDF0895833057
S113045021F482E060E017DF0895813019F482E02E
S113046062E011DF08956E9A80E008956E9880E04E
S11304700895813011F46C9A03C0882309F46C98B0
S113048080E00895813051F0813028F0823049F0C5
S1130490833061F409C06B986A9808C06B986A9AB3
S11304A005C06B9A6A9802C06B9A6A9A80E00895B4
S11304B09DB19C7F9DB99DB1982B9DB986958695DC
S11304C080FD02C0709801C0709A80E00895813068
S11304D011F46D9A03C0882309F46D9880E008959F
S11304E0CF93DF93EC018881C4DF88818130A9F444
S11304F063E041E0B4DD81E064E040E0B0DD81E050
S113050065E041E0ACDD81E062E040E0A8DD81E04F
S113051062E00CDF8A81CCDF12C0882381F481E0A1
S113052063E040E09CDD81E064E041E098DD81E04F
S113053065E040E094DD81E062E040E090DD8981A7
S1130540A1DF8B81C4DF8FDFDF91CF910895CF933B
S1130550DF93D82FC62F41E082DD8D2F6C2F40E032
S1130560F5DD80E0DF91CF910895CF93DF93D82F0D
S1130570C62F41E074DD8D2F6C2F41E0E7DD80E074
S1130580DF91CF9108959FB18FB9779BFECF8FB143
S11305900895779BFECF8FB108956F9A0895909137
S11305A06000992321F48FB981E08093600008955D
S11305B01F920F920FB60F9211242F933F934F93D4
S11305C05F936F937F938F939F93AF93BF93EF93B7
S11305D0FF9383E067E057DE8FB180936100109250
S11305E06000FF91EF91BF91AF919F918F917F91A7
S11305F06F915F914F913F912F910F900FBE0F908C
S11306001F901895CF93DF9300D000D0CDB7DEB7FD
S113061019821A8284E08B8381E08C83CE01019657
S11306205FDFBBDF83E067E041E019DD81E060E08C
S11306302ADE8FE996E8A1E081509040A040E1F7DE
S10D064000C00000F3CFF894FFCFD0
S9030000FC
