S00E00004D61737465722E73726563AA
S11300000C942A000C9447000C9447000C9447006D
S11300100C9447000C9447000C9447000C94470040
S11300200C9447000C9447000C9447000C94470030
S11300300C9483030C9447000C9447000C944700E1
S11300400C9447000C9447000C9447000C94470010
S11300500C94470011241FBECFE5D8E0DEBFCDBF0E
S113006010E0A0E6B0E0E0E6F7E002C005900D92F3
S1130070A036B107D9F710E0A0E6B0E001C01D92A8
S1130080A236B107E1F70E9498020C94AE030C94D7
S11300900000813031F1813038F0823009F43EC003
S11300A0833009F074C057C0413069F42AB381E049
S11300B090E0AC0102C0440F551F6A95E2F7BA0103
S11300C0622B6ABB08952AB381E090E0AC0102C0C0
S11300D0440F551F6A95E2F7BA01609562236ABB23
S11300E00895413069F427B381E090E0AC0102C087
S11300F0440F551F6A95E2F7BA01622B67BB089556
S113010027B381E090E0AC0102C0440F551F6A950B
S1130110E2F7BA016095622367BB0895413069F440
S113012024B381E090E0AC0102C0440F551F6A95EE
S1130130E2F7BA01622B64BB089524B381E090E036
S1130140AC0102C0440F551F6A95E2F7BA016095ED
S1130150622364BB0895413069F421B381E090E0E7
S1130160AC0102C0440F551F6A95E2F7BA01622B35
S113017061BB089521B381E090E0AC0102C0440F5B
S1130180551F6A95E2F7BA016095622361BB089531
S1130190813049F0813028F0823039F0833041F4E5
S11301A006C06ABB089567BB089564BB089561BB2C
S11301B00895813049F0813028F0823039F083305D
S11301C041F406C06BBB089568BB089565BB0895F0
S11301D062BB0895813031F1813038F0823009F406
S11301E03EC0833009F074C057C0442371F42BB36C
S11301F081E090E0AC0102C0440F551F6A95E2F71C
S1130200BA01609562236BBB08952BB381E090E043
S1130210AC0102C0440F551F6A95E2F7BA01622B84
S11302206BBB0895442371F428B381E090E0AC01E2
S113023002C0440F551F6A95E2F7BA016095622324
S113024068BB089528B381E090E0AC0102C0440F7C
S1130250551F6A95E2F7BA01622B68BB08954423DF
S113026071F425B381E090E0AC0102C0440F551F46
S11302706A95E2F7BA016095622365BB089525B3D8
S113028081E090E0AC0102C0440F551F6A95E2F78B
S1130290BA01622B65BB0895442371F422B381E053
S11302A090E0AC0102C0440F551F6A95E2F7BA0111
S11302B06095622362BB089522B381E090E0AC01B3
S11302C002C0440F551F6A95E2F7BA01622B62BB64
S11302D008958130C1F0813030F0823019F18330DB
S11302E009F03EC02EC08BB3942F909589238BBB0D
S11302F070E0CB0102C0880F991F2A95E2F79C0198
S113030024232BBB089588B3942F9095892388BB0D
S113031070E0FB0102C0EE0FFF1F2A95E2F7E42311
S1130320E8BB089585B3942F9095892385BB70E02D
S1130330CB0102C0880F991F2A95E2F7842385BB5D
S1130340089582B3942F9095892382BB70E0CB01EA
S113035002C0880F991F2A95E2F79C01242322BB2F
S11303600895682370E0CB0102C0959587954A955E
S1130370E2F708958130A1F0813028F08230E9F06D
S11303808330A1F527C02BB381E090E0AC0102C01B
S1130390440F551F6A95E2F7BA0162276BBB0895B3
S11303A028B381E090E0AC0102C0440F551F6A9568
S11303B0E2F7BA01622768BB089525B381E090E0B3
S11303C0AC0102C0440F551F6A95E2F7BA016227D7
S11303D065BB089522B381E090E0AC0102C0440FF4
S11303E0551F6A95E2F7BA01622762BB089581300E
S11303F089F0813028F08230B9F0833049F51EC08D
S113040029B330E0C90102C0959587956A95E2F752
S11304108170089526B330E0C90102C0959587958F
S11304206A95E2F78170089523B330E0C90102C0F0
S1130430959587956A95E2F78170089520B330E029
S1130440C90102C0959587956A95E2F78170089570
S113045080E008958130F9F0813030F0823091F1FC
S1130460833009F05CC045C08AB390E0062E02C018
S1130470959587950A94E2F780FD51C02BB381E0EE
S113048090E0AC0102C0440F551F6A95E2F7BA012F
S1130490622B6BBB089587B390E0062E02C095953E
S11304A087950A94E2F780FD3AC028B381E090E092
S11304B0AC0102C0440F551F6A95E2F7BA01622BE2
S11304C068BB089584B390E0062E02C09595879585
S11304D00A94E2F780FD23C025B381E090E0AC01EB
S11304E002C0440F551F6A95E2F7BA01622B65BB3F
S11304F0089581B390E0062E02C0959587950A94DD
S1130500E2F780FD0CC022B381E090E0AC0102C0B0
S1130510440F551F6A95E2F7BA01622B62BB089536
S11305208FB780688FBF08958FB78F778FBF089577
S1130530CF93DF9300D000D0CDB7DEB781E08983BD
S11305401A8293E09B838C83CE0101960E9403035D
S11305500E9478030E94900282E067E041E00E94DA
S1130560490080E063E00E9448038FED0E947A0313
S11305708FEF99E6A8E181509040A040E1F700C0D8
S1130580000082E060E00E94D900EBCF6E9A80E028
S113059008956E9880E00895813011F46C9A03C038
S11305A0882309F46C9880E00895813051F08130FB
S11305B028F0823049F0833061F409C06B986A985E
S11305C008C06B986A9A05C06B9A6A9802C06B9AC5
S11305D06A9A80E008959DB19C7F9DB99DB1982B46
S11305E09DB98695869580FD02C0709801C0709A69
S11305F080E00895813011F46D9A03C0882309F4D2
S11306006D9880E00895CF93DF93EC0188810E9478
S1130610CC0288818130D9F465E041E00E94490030
S113062081E066E040E00E94490081E067E041E04B
S11306300E94490081E064E040E00E94490081E0BA
S113064064E00E942A028A810E94EB0216C0882379
S1130650A1F481E065E040E00E94490081E066E0A9
S113066041E00E94490081E067E040E00E944900C7
S113067081E064E040E00E94490089810E94D50243
S11306808B810E94FA020E94C602DF91CF910895E5
S1130690CF93DF93D82FC62F41E00E9449008D2FBE
S11306A06C2F40E00E94EA0080E0DF91CF91089532
S11306B0CF93DF93D82FC62F41E00E9449008D2F9E
S11306C06C2F41E00E94EA0080E0DF91CF91089511
S11306D09FB18FB9779903C08EB186FFFBCF8FB1DD
S11306E00895779903C08EB186FFFBCF8FB108952B
S11306F06F9A089590916000992321F48FB981E055
S11307008093600008951F920F920FB60F921124E8
S11307102F933F934F935F936F937F938F939F9305
S1130720AF93BF93EF93FF938FB18093610080E009
S113073063E00E94580310926000FF91EF91BF9113
S1130740AF919F918F917F916F915F914F913F9165
S11307502F910F900FBE0F901F901895F894FFCF14
S9030000FC
